{
  "_format": "hh-sol-artifact-1",
  "contractName": "MyTokenSale",
  "sourceName": "contracts/MyTokenSale.sol",
  "abi": [
    {
      "inputs": [
        {
          "internalType": "uint256",
          "name": "rate",
          "type": "uint256"
        },
        {
          "internalType": "address payable",
          "name": "wallet",
          "type": "address"
        },
        {
          "internalType": "contract IERC20",
          "name": "token",
          "type": "address"
        },
        {
          "internalType": "contract KycContract",
          "name": "_kyc",
          "type": "address"
        }
      ],
      "stateMutability": "nonpayable",
      "type": "constructor"
    },
    {
      "anonymous": false,
      "inputs": [
        {
          "indexed": true,
          "internalType": "address",
          "name": "purchaser",
          "type": "address"
        },
        {
          "indexed": true,
          "internalType": "address",
          "name": "beneficiary",
          "type": "address"
        },
        {
          "indexed": false,
          "internalType": "uint256",
          "name": "value",
          "type": "uint256"
        },
        {
          "indexed": false,
          "internalType": "uint256",
          "name": "amount",
          "type": "uint256"
        }
      ],
      "name": "TokensPurchased",
      "type": "event"
    },
    {
      "inputs": [
        {
          "internalType": "address",
          "name": "beneficiary",
          "type": "address"
        }
      ],
      "name": "buyTokens",
      "outputs": [],
      "stateMutability": "payable",
      "type": "function"
    },
    {
      "inputs": [],
      "name": "weiRaised",
      "outputs": [
        {
          "internalType": "uint256",
          "name": "",
          "type": "uint256"
        }
      ],
      "stateMutability": "view",
      "type": "function"
    },
    {
      "stateMutability": "payable",
      "type": "receive"
    }
  ],
  "bytecode": "0x60806040523480156200001157600080fd5b5060405162001433380380620014338339818101604052810190620000379190620002a1565b83838360016000819055506000831162000088576040517f08c379a00000000000000000000000000000000000000000000000000000000081526004016200007f90620003a4565b60405180910390fd5b600073ffffffffffffffffffffffffffffffffffffffff168273ffffffffffffffffffffffffffffffffffffffff161415620000fb576040517f08c379a0000000000000000000000000000000000000000000000000000000008152600401620000f290620003c6565b60405180910390fd5b600073ffffffffffffffffffffffffffffffffffffffff168173ffffffffffffffffffffffffffffffffffffffff1614156200016e576040517f08c379a0000000000000000000000000000000000000000000000000000000008152600401620001659062000382565b60405180910390fd5b8260038190555081600260006101000a81548173ffffffffffffffffffffffffffffffffffffffff021916908373ffffffffffffffffffffffffffffffffffffffff16021790555080600160006101000a81548173ffffffffffffffffffffffffffffffffffffffff021916908373ffffffffffffffffffffffffffffffffffffffff16021790555050505080600560006101000a81548173ffffffffffffffffffffffffffffffffffffffff021916908373ffffffffffffffffffffffffffffffffffffffff16021790555050505050620005a2565b60008151905062000256816200053a565b92915050565b6000815190506200026d8162000554565b92915050565b60008151905062000284816200056e565b92915050565b6000815190506200029b8162000588565b92915050565b60008060008060808587031215620002b857600080fd5b6000620002c8878288016200028a565b9450506020620002db8782880162000245565b9350506040620002ee878288016200025c565b9250506060620003018782880162000273565b91505092959194509250565b60006200031c602483620003e8565b9150620003298262000473565b604082019050919050565b600062000343601483620003e8565b91506200035082620004c2565b602082019050919050565b60006200036a602583620003e8565b91506200037782620004eb565b604082019050919050565b600060208201905081810360008301526200039d816200030d565b9050919050565b60006020820190508181036000830152620003bf8162000334565b9050919050565b60006020820190508181036000830152620003e1816200035b565b9050919050565b600082825260208201905092915050565b6000620004068262000449565b9050919050565b60006200041a8262000449565b9050919050565b60006200042e82620003f9565b9050919050565b60006200044282620003f9565b9050919050565b600073ffffffffffffffffffffffffffffffffffffffff82169050919050565b6000819050919050565b7f43726f776473616c653a20746f6b656e20697320746865207a65726f2061646460008201527f7265737300000000000000000000000000000000000000000000000000000000602082015250565b7f43726f776473616c653a20726174652069732030000000000000000000000000600082015250565b7f43726f776473616c653a2077616c6c657420697320746865207a65726f20616460008201527f6472657373000000000000000000000000000000000000000000000000000000602082015250565b62000545816200040d565b81146200055157600080fd5b50565b6200055f8162000421565b81146200056b57600080fd5b50565b620005798162000435565b81146200058557600080fd5b50565b620005938162000469565b81146200059f57600080fd5b50565b610e8180620005b26000396000f3fe60806040526004361061002d5760003560e01c80634042b66f14610049578063ec8ac4d81461007457610044565b366100445761004261003d610090565b610098565b005b600080fd5b34801561005557600080fd5b5061005e6101bc565b60405161006b9190610aab565b60405180910390f35b61008e6004803603810190610089919061077f565b610098565b005b600033905090565b600260005414156100de576040517f08c379a00000000000000000000000000000000000000000000000000000000081526004016100d590610a6b565b60405180910390fd5b600260008190555060003490506100f582826101c6565b6000610100826102be565b905081600460008282546101149190610b21565b9250508190555061012583826102d8565b8273ffffffffffffffffffffffffffffffffffffffff16610144610090565b73ffffffffffffffffffffffffffffffffffffffff167f6faf93231a456e552dbc9961f58d9713ee4f2e69d15f1975b050ef0911053a7b848460405161018b929190610ac6565b60405180910390a361019d83836102e6565b6101a56102ea565b6101af8383610355565b5050600160008190555050565b6000600454905090565b6101d08282610359565b600560009054906101000a900473ffffffffffffffffffffffffffffffffffffffff1673ffffffffffffffffffffffffffffffffffffffff1663df235fe4836040518263ffffffff1660e01b815260040161022b9190610965565b60206040518083038186803b15801561024357600080fd5b505afa158015610257573d6000803e3d6000fd5b505050506040513d601f19601f8201168201806040525081019061027b91906107a8565b6102ba576040517f08c379a00000000000000000000000000000000000000000000000000000000081526004016102b1906109eb565b60405180910390fd5b5050565b6000600354826102ce9190610b77565b9150819050919050565b6102e28282610411565b5050565b5050565b600260009054906101000a900473ffffffffffffffffffffffffffffffffffffffff1673ffffffffffffffffffffffffffffffffffffffff166108fc349081150290604051600060405180830381858888f19350505050158015610352573d6000803e3d6000fd5b50565b5050565b600073ffffffffffffffffffffffffffffffffffffffff168273ffffffffffffffffffffffffffffffffffffffff1614156103c9576040517f08c379a00000000000000000000000000000000000000000000000000000000081526004016103c090610a0b565b60405180910390fd5b600081141561040d576040517f08c379a000000000000000000000000000000000000000000000000000000000815260040161040490610a8b565b60405180910390fd5b5050565b61045e8282600160009054906101000a900473ffffffffffffffffffffffffffffffffffffffff1673ffffffffffffffffffffffffffffffffffffffff166104629092919063ffffffff16565b5050565b6104e38363a9059cbb60e01b8484604051602401610481929190610980565b604051602081830303815290604052907bffffffffffffffffffffffffffffffffffffffffffffffffffffffff19166020820180517bffffffffffffffffffffffffffffffffffffffffffffffffffffffff83818316178352505050506104e8565b505050565b600061054a826040518060400160405280602081526020017f5361666545524332303a206c6f772d6c6576656c2063616c6c206661696c65648152508573ffffffffffffffffffffffffffffffffffffffff166105af9092919063ffffffff16565b90506000815111156105aa578080602001905181019061056a91906107a8565b6105a9576040517f08c379a00000000000000000000000000000000000000000000000000000000081526004016105a090610a4b565b60405180910390fd5b5b505050565b60606105be84846000856105c7565b90509392505050565b60608247101561060c576040517f08c379a0000000000000000000000000000000000000000000000000000000008152600401610603906109cb565b60405180910390fd5b610615856106db565b610654576040517f08c379a000000000000000000000000000000000000000000000000000000000815260040161064b90610a2b565b60405180910390fd5b6000808673ffffffffffffffffffffffffffffffffffffffff16858760405161067d919061094e565b60006040518083038185875af1925050503d80600081146106ba576040519150601f19603f3d011682016040523d82523d6000602084013e6106bf565b606091505b50915091506106cf8282866106ee565b92505050949350505050565b600080823b905060008111915050919050565b606083156106fe5782905061074e565b6000835111156107115782518084602001fd5b816040517f08c379a000000000000000000000000000000000000000000000000000000000815260040161074591906109a9565b60405180910390fd5b9392505050565b60008135905061076481610e1d565b92915050565b60008151905061077981610e34565b92915050565b60006020828403121561079157600080fd5b600061079f84828501610755565b91505092915050565b6000602082840312156107ba57600080fd5b60006107c88482850161076a565b91505092915050565b6107da81610bd1565b82525050565b60006107eb82610aef565b6107f58185610b05565b9350610805818560208601610c19565b80840191505092915050565b600061081c82610afa565b6108268185610b10565b9350610836818560208601610c19565b61083f81610c7b565b840191505092915050565b6000610857602683610b10565b915061086282610c8c565b604082019050919050565b600061087a601f83610b10565b915061088582610cdb565b602082019050919050565b600061089d602a83610b10565b91506108a882610d04565b604082019050919050565b60006108c0601d83610b10565b91506108cb82610d53565b602082019050919050565b60006108e3602a83610b10565b91506108ee82610d7c565b604082019050919050565b6000610906601f83610b10565b915061091182610dcb565b602082019050919050565b6000610929601983610b10565b915061093482610df4565b602082019050919050565b61094881610c0f565b82525050565b600061095a82846107e0565b915081905092915050565b600060208201905061097a60008301846107d1565b92915050565b600060408201905061099560008301856107d1565b6109a2602083018461093f565b9392505050565b600060208201905081810360008301526109c38184610811565b905092915050565b600060208201905081810360008301526109e48161084a565b9050919050565b60006020820190508181036000830152610a048161086d565b9050919050565b60006020820190508181036000830152610a2481610890565b9050919050565b60006020820190508181036000830152610a44816108b3565b9050919050565b60006020820190508181036000830152610a64816108d6565b9050919050565b60006020820190508181036000830152610a84816108f9565b9050919050565b60006020820190508181036000830152610aa48161091c565b9050919050565b6000602082019050610ac0600083018461093f565b92915050565b6000604082019050610adb600083018561093f565b610ae8602083018461093f565b9392505050565b600081519050919050565b600081519050919050565b600081905092915050565b600082825260208201905092915050565b6000610b2c82610c0f565b9150610b3783610c0f565b9250827fffffffffffffffffffffffffffffffffffffffffffffffffffffffffffffffff03821115610b6c57610b6b610c4c565b5b828201905092915050565b6000610b8282610c0f565b9150610b8d83610c0f565b9250817fffffffffffffffffffffffffffffffffffffffffffffffffffffffffffffffff0483118215151615610bc657610bc5610c4c565b5b828202905092915050565b6000610bdc82610bef565b9050919050565b60008115159050919050565b600073ffffffffffffffffffffffffffffffffffffffff82169050919050565b6000819050919050565b60005b83811015610c37578082015181840152602081019050610c1c565b83811115610c46576000848401525b50505050565b7f4e487b7100000000000000000000000000000000000000000000000000000000600052601160045260246000fd5b6000601f19601f8301169050919050565b7f416464726573733a20696e73756666696369656e742062616c616e636520666f60008201527f722063616c6c0000000000000000000000000000000000000000000000000000602082015250565b7f4b5943206e6f7420636f6d706c65746564207965742c2061626f7274696e6700600082015250565b7f43726f776473616c653a2062656e656669636961727920697320746865207a6560008201527f726f206164647265737300000000000000000000000000000000000000000000602082015250565b7f416464726573733a2063616c6c20746f206e6f6e2d636f6e7472616374000000600082015250565b7f5361666545524332303a204552433230206f7065726174696f6e20646964206e60008201527f6f74207375636365656400000000000000000000000000000000000000000000602082015250565b7f5265656e7472616e637947756172643a207265656e7472616e742063616c6c00600082015250565b7f43726f776473616c653a20776569416d6f756e74206973203000000000000000600082015250565b610e2681610bd1565b8114610e3157600080fd5b50565b610e3d81610be3565b8114610e4857600080fd5b5056fea2646970667358221220e524e5c7738611e2be1b5d5a57ef9611080009f99393861404d4b4b4fd21e9cd64736f6c63430008040033",
  "linkReferences": {},
  "deployedLinkReferences": {}
}