{
  "_format": "hh-sol-artifact-1",
  "contractName": "Crowdsale",
  "sourceName": "contracts/Crowdsale.sol",
  "abi": [
    {
      "inputs": [
        {
          "internalType": "uint256",
          "name": "rate",
          "type": "uint256"
        },
        {
          "internalType": "address payable",
          "name": "wallet",
          "type": "address"
        },
        {
          "internalType": "contract IERC20",
          "name": "token",
          "type": "address"
        }
      ],
      "stateMutability": "nonpayable",
      "type": "constructor"
    },
    {
      "anonymous": false,
      "inputs": [
        {
          "indexed": true,
          "internalType": "address",
          "name": "purchaser",
          "type": "address"
        },
        {
          "indexed": true,
          "internalType": "address",
          "name": "beneficiary",
          "type": "address"
        },
        {
          "indexed": false,
          "internalType": "uint256",
          "name": "value",
          "type": "uint256"
        },
        {
          "indexed": false,
          "internalType": "uint256",
          "name": "amount",
          "type": "uint256"
        }
      ],
      "name": "TokensPurchased",
      "type": "event"
    },
    {
      "inputs": [
        {
          "internalType": "address",
          "name": "beneficiary",
          "type": "address"
        }
      ],
      "name": "buyTokens",
      "outputs": [],
      "stateMutability": "payable",
      "type": "function"
    },
    {
      "inputs": [],
      "name": "weiRaised",
      "outputs": [
        {
          "internalType": "uint256",
          "name": "",
          "type": "uint256"
        }
      ],
      "stateMutability": "view",
      "type": "function"
    },
    {
      "stateMutability": "payable",
      "type": "receive"
    }
  ],
  "bytecode": "0x60806040523480156200001157600080fd5b506040516200121138038062001211833981810160405281019062000037919062000242565b60016000819055506000831162000085576040517f08c379a00000000000000000000000000000000000000000000000000000000081526004016200007c906200032f565b60405180910390fd5b600073ffffffffffffffffffffffffffffffffffffffff168273ffffffffffffffffffffffffffffffffffffffff161415620000f8576040517f08c379a0000000000000000000000000000000000000000000000000000000008152600401620000ef9062000351565b60405180910390fd5b600073ffffffffffffffffffffffffffffffffffffffff168173ffffffffffffffffffffffffffffffffffffffff1614156200016b576040517f08c379a000000000000000000000000000000000000000000000000000000000815260040162000162906200030d565b60405180910390fd5b8260038190555081600260006101000a81548173ffffffffffffffffffffffffffffffffffffffff021916908373ffffffffffffffffffffffffffffffffffffffff16021790555080600160006101000a81548173ffffffffffffffffffffffffffffffffffffffff021916908373ffffffffffffffffffffffffffffffffffffffff160217905550505050620004ff565b6000815190506200020e81620004b1565b92915050565b6000815190506200022581620004cb565b92915050565b6000815190506200023c81620004e5565b92915050565b6000806000606084860312156200025857600080fd5b600062000268868287016200022b565b93505060206200027b86828701620001fd565b92505060406200028e8682870162000214565b9150509250925092565b6000620002a760248362000373565b9150620002b482620003ea565b604082019050919050565b6000620002ce60148362000373565b9150620002db8262000439565b602082019050919050565b6000620002f560258362000373565b9150620003028262000462565b604082019050919050565b60006020820190508181036000830152620003288162000298565b9050919050565b600060208201905081810360008301526200034a81620002bf565b9050919050565b600060208201905081810360008301526200036c81620002e6565b9050919050565b600082825260208201905092915050565b60006200039182620003c0565b9050919050565b6000620003a582620003c0565b9050919050565b6000620003b98262000384565b9050919050565b600073ffffffffffffffffffffffffffffffffffffffff82169050919050565b6000819050919050565b7f43726f776473616c653a20746f6b656e20697320746865207a65726f2061646460008201527f7265737300000000000000000000000000000000000000000000000000000000602082015250565b7f43726f776473616c653a20726174652069732030000000000000000000000000600082015250565b7f43726f776473616c653a2077616c6c657420697320746865207a65726f20616460008201527f6472657373000000000000000000000000000000000000000000000000000000602082015250565b620004bc8162000398565b8114620004c857600080fd5b50565b620004d681620003ac565b8114620004e257600080fd5b50565b620004f081620003e0565b8114620004fc57600080fd5b50565b610d02806200050f6000396000f3fe60806040526004361061002d5760003560e01c80634042b66f14610049578063ec8ac4d81461007457610044565b366100445761004261003d610090565b610098565b005b600080fd5b34801561005557600080fd5b5061005e6101bc565b60405161006b9190610955565b60405180910390f35b61008e60048036038101906100899190610687565b610098565b005b600033905090565b600260005414156100de576040517f08c379a00000000000000000000000000000000000000000000000000000000081526004016100d590610915565b60405180910390fd5b600260008190555060003490506100f582826101c6565b60006101008261027e565b9050816004600082825461011491906109cb565b925050819055506101258382610298565b8273ffffffffffffffffffffffffffffffffffffffff16610144610090565b73ffffffffffffffffffffffffffffffffffffffff167f6faf93231a456e552dbc9961f58d9713ee4f2e69d15f1975b050ef0911053a7b848460405161018b929190610970565b60405180910390a361019d83836102a6565b6101a56102aa565b6101af8383610315565b5050600160008190555050565b6000600454905090565b600073ffffffffffffffffffffffffffffffffffffffff168273ffffffffffffffffffffffffffffffffffffffff161415610236576040517f08c379a000000000000000000000000000000000000000000000000000000000815260040161022d906108b5565b60405180910390fd5b600081141561027a576040517f08c379a000000000000000000000000000000000000000000000000000000000815260040161027190610935565b60405180910390fd5b5050565b60006003548261028e9190610a21565b9150819050919050565b6102a28282610319565b5050565b5050565b600260009054906101000a900473ffffffffffffffffffffffffffffffffffffffff1673ffffffffffffffffffffffffffffffffffffffff166108fc349081150290604051600060405180830381858888f19350505050158015610312573d6000803e3d6000fd5b50565b5050565b6103668282600160009054906101000a900473ffffffffffffffffffffffffffffffffffffffff1673ffffffffffffffffffffffffffffffffffffffff1661036a9092919063ffffffff16565b5050565b6103eb8363a9059cbb60e01b848460405160240161038992919061084a565b604051602081830303815290604052907bffffffffffffffffffffffffffffffffffffffffffffffffffffffff19166020820180517bffffffffffffffffffffffffffffffffffffffffffffffffffffffff83818316178352505050506103f0565b505050565b6000610452826040518060400160405280602081526020017f5361666545524332303a206c6f772d6c6576656c2063616c6c206661696c65648152508573ffffffffffffffffffffffffffffffffffffffff166104b79092919063ffffffff16565b90506000815111156104b2578080602001905181019061047291906106b0565b6104b1576040517f08c379a00000000000000000000000000000000000000000000000000000000081526004016104a8906108f5565b60405180910390fd5b5b505050565b60606104c684846000856104cf565b90509392505050565b606082471015610514576040517f08c379a000000000000000000000000000000000000000000000000000000000815260040161050b90610895565b60405180910390fd5b61051d856105e3565b61055c576040517f08c379a0000000000000000000000000000000000000000000000000000000008152600401610553906108d5565b60405180910390fd5b6000808673ffffffffffffffffffffffffffffffffffffffff1685876040516105859190610833565b60006040518083038185875af1925050503d80600081146105c2576040519150601f19603f3d011682016040523d82523d6000602084013e6105c7565b606091505b50915091506105d78282866105f6565b92505050949350505050565b600080823b905060008111915050919050565b6060831561060657829050610656565b6000835111156106195782518084602001fd5b816040517f08c379a000000000000000000000000000000000000000000000000000000000815260040161064d9190610873565b60405180910390fd5b9392505050565b60008135905061066c81610c9e565b92915050565b60008151905061068181610cb5565b92915050565b60006020828403121561069957600080fd5b60006106a78482850161065d565b91505092915050565b6000602082840312156106c257600080fd5b60006106d084828501610672565b91505092915050565b6106e281610a7b565b82525050565b60006106f382610999565b6106fd81856109af565b935061070d818560208601610ac3565b80840191505092915050565b6000610724826109a4565b61072e81856109ba565b935061073e818560208601610ac3565b61074781610b25565b840191505092915050565b600061075f6026836109ba565b915061076a82610b36565b604082019050919050565b6000610782602a836109ba565b915061078d82610b85565b604082019050919050565b60006107a5601d836109ba565b91506107b082610bd4565b602082019050919050565b60006107c8602a836109ba565b91506107d382610bfd565b604082019050919050565b60006107eb601f836109ba565b91506107f682610c4c565b602082019050919050565b600061080e6019836109ba565b915061081982610c75565b602082019050919050565b61082d81610ab9565b82525050565b600061083f82846106e8565b915081905092915050565b600060408201905061085f60008301856106d9565b61086c6020830184610824565b9392505050565b6000602082019050818103600083015261088d8184610719565b905092915050565b600060208201905081810360008301526108ae81610752565b9050919050565b600060208201905081810360008301526108ce81610775565b9050919050565b600060208201905081810360008301526108ee81610798565b9050919050565b6000602082019050818103600083015261090e816107bb565b9050919050565b6000602082019050818103600083015261092e816107de565b9050919050565b6000602082019050818103600083015261094e81610801565b9050919050565b600060208201905061096a6000830184610824565b92915050565b60006040820190506109856000830185610824565b6109926020830184610824565b9392505050565b600081519050919050565b600081519050919050565b600081905092915050565b600082825260208201905092915050565b60006109d682610ab9565b91506109e183610ab9565b9250827fffffffffffffffffffffffffffffffffffffffffffffffffffffffffffffffff03821115610a1657610a15610af6565b5b828201905092915050565b6000610a2c82610ab9565b9150610a3783610ab9565b9250817fffffffffffffffffffffffffffffffffffffffffffffffffffffffffffffffff0483118215151615610a7057610a6f610af6565b5b828202905092915050565b6000610a8682610a99565b9050919050565b60008115159050919050565b600073ffffffffffffffffffffffffffffffffffffffff82169050919050565b6000819050919050565b60005b83811015610ae1578082015181840152602081019050610ac6565b83811115610af0576000848401525b50505050565b7f4e487b7100000000000000000000000000000000000000000000000000000000600052601160045260246000fd5b6000601f19601f8301169050919050565b7f416464726573733a20696e73756666696369656e742062616c616e636520666f60008201527f722063616c6c0000000000000000000000000000000000000000000000000000602082015250565b7f43726f776473616c653a2062656e656669636961727920697320746865207a6560008201527f726f206164647265737300000000000000000000000000000000000000000000602082015250565b7f416464726573733a2063616c6c20746f206e6f6e2d636f6e7472616374000000600082015250565b7f5361666545524332303a204552433230206f7065726174696f6e20646964206e60008201527f6f74207375636365656400000000000000000000000000000000000000000000602082015250565b7f5265656e7472616e637947756172643a207265656e7472616e742063616c6c00600082015250565b7f43726f776473616c653a20776569416d6f756e74206973203000000000000000600082015250565b610ca781610a7b565b8114610cb257600080fd5b50565b610cbe81610a8d565b8114610cc957600080fd5b5056fea264697066735822122047d3fe61f0fdb1e2fe48ec72e892d9dc7a47d697d2d6c44222318c752191f74564736f6c63430008040033",
  "linkReferences": {},
  "deployedLinkReferences": {}
}